S01700004763634170706C69636174696F6E312E737265635B
S11300000C9434000C9446000C9446000C94460066
S11300100C9446000C9446000C9446000C94460044
S11300200C9446000C9446000C9446000C94460034
S11300300C9446000C9446000C9446000C94460024
S11300400C9446000C9446000C9446000C94460014
S11300500C9446000C9446000C9446000C94460004
S11300600C9446000C94460011241FBECFEFD8E038
S1130070DEBFCDBF21E0A0E0B1E001C01D92A430FD
S1130080B207E1F70E9448000C9457010C94000059
S11300908AB1886F8AB987B18C6087B96CEB7DE1CE
S11300A086E598E00E940F01092E000CAA0BBB0BF9
S11300B08093000190930101A0930201B093030186
S11300C08091000190910101A0910201B09103017E
S11300D081319742A105B1054CF10E94340160EAD7
S11300E076E881E090E00E94BF000E943E0160EA51
S11300F076E881E090E00E94BF000E94FF0060EA81
S113010076E881E090E00E94BF000E94450160EA29
S113011076E881E090E00E94BF000E944F0160EA0F
S113012076E881E090E00E94BF00B8CF0E94090108
S113013060EA76E881E090E00E94BF000E9412012C
S113014060EA76E881E090E00E94BF000E941B0113
S113015060EA76E881E090E00E94BF000E942501F9
S113016060EA76E881E090E00E94BF000E942D01E1
S113017060EA76E881E090E00E94BF008FCFCF93E1
S1130180DF93CDB7DEB728970FB6F894DEBF0FBE66
S1130190CDBF6D837E838F83988719821A821B82D9
S11301A01C8249815A816B817C818D819E81AF81C2
S11301B0B885481759076A077B07C4F489819A816F
S11301C0AB81BC810196A11DB11D89839A83AB8348
S11301D0BC8349815A816B817C818D819E81AF81F1
S11301E0B885481759076A077B0744F328960FB662
S11301F0F894DEBF0FBECDBFDF91CF9108958BB1D0
S113020080698BB98BB187798BB988B1837F88B9C1
S113021008958BB18FEF8BB998B188B90895860F83
S1130220971F08958BB187728BB988B1837F88B982
S11302305D9A429A08958BB18F7C8BB988B1837F84
S113024088B98BB1886C8BB908958BB187718BB9E0
S113025088B1837F88B95C9A08958BB187708BB914
S113026088B1837F88B908958BB18F7C8BB988B1AD
S11302708C6088B98BB1886C8BB908958BB1877108
S11302808BB943985C9A429A08958BB1877C8BB959
S113029088B18C6088B98BB1806C8BB908958BB1AF
S11302A087748BB988B1837F88B95E9A0895F8946E
S10502B0FFCF7A
S9030000FC
